{
  "contractName": "FundraiserFactory",
  "abi": [
    {
      "anonymous": false,
      "inputs": [
        {
          "indexed": true,
          "internalType": "contract Fundraiser",
          "name": "fundraiser",
          "type": "address"
        },
        {
          "indexed": true,
          "internalType": "address",
          "name": "owner",
          "type": "address"
        }
      ],
      "name": "FundraiserCreated",
      "type": "event"
    },
    {
      "inputs": [
        {
          "internalType": "string",
          "name": "name",
          "type": "string"
        },
        {
          "internalType": "string",
          "name": "description",
          "type": "string"
        },
        {
          "internalType": "string",
          "name": "imageURL",
          "type": "string"
        },
        {
          "internalType": "string",
          "name": "url",
          "type": "string"
        },
        {
          "internalType": "address payable",
          "name": "beneficiary",
          "type": "address"
        }
      ],
      "name": "createFundraiser",
      "outputs": [],
      "stateMutability": "nonpayable",
      "type": "function"
    },
    {
      "inputs": [],
      "name": "fundraisers",
      "outputs": [
        {
          "internalType": "contract Fundraiser[]",
          "name": "array_fundraisers",
          "type": "address[]"
        }
      ],
      "stateMutability": "view",
      "type": "function",
      "constant": true
    }
  ],
  "bytecode": "0x608060405234801561001057600080fd5b50612378806100206000396000f3fe60806040523480156200001157600080fd5b50600436106200003a5760003560e01c806307d98512146200003f57806311d752ad1462000061575b600080fd5b6200004962000081565b60405162000058919062000492565b60405180910390f35b6200007f6004803603810190620000799190620002b4565b62000111565b005b606060008054806020026020016040519081016040528092919081815260200182805480156200010757602002820191906000526020600020905b8160009054906101000a900473ffffffffffffffffffffffffffffffffffffffff1673ffffffffffffffffffffffffffffffffffffffff1681526020019060010190808311620000bc575b5050505050905090565b600085858585853360405162000127906200021d565b6200013896959493929190620004b6565b604051809103906000f08015801562000155573d6000803e3d6000fd5b5090506000819080600181540180825580915050600190039060005260206000200160009091909190916101000a81548173ffffffffffffffffffffffffffffffffffffffff021916908373ffffffffffffffffffffffffffffffffffffffff1602179055503373ffffffffffffffffffffffffffffffffffffffff168173ffffffffffffffffffffffffffffffffffffffff167fa2398daac0c8053a1e3c0280916c2ec6bc884f0959c27e639a4db829b7eabfb160405160405180910390a3505050505050565b611c38806200070b83390190565b6000620002426200023c8462000573565b6200053f565b9050828152602081018484840111156200025b57600080fd5b620002688482856200066b565b509392505050565b6000813590506200028181620006f0565b92915050565b600082601f8301126200029957600080fd5b8135620002ab8482602086016200022b565b91505092915050565b600080600080600060a08688031215620002cd57600080fd5b600086013567ffffffffffffffff811115620002e857600080fd5b620002f68882890162000287565b955050602086013567ffffffffffffffff8111156200031457600080fd5b620003228882890162000287565b945050604086013567ffffffffffffffff8111156200034057600080fd5b6200034e8882890162000287565b935050606086013567ffffffffffffffff8111156200036c57600080fd5b6200037a8882890162000287565b92505060806200038d8882890162000270565b9150509295509295909350565b6000620003a8838362000440565b60208301905092915050565b620003bf816200060f565b82525050565b620003d081620005fb565b82525050565b6000620003e382620005b6565b620003ef8185620005d9565b9350620003fc83620005a6565b8060005b83811015620004335781516200041788826200039a565b97506200042483620005cc565b92505060018101905062000400565b5085935050505092915050565b6200044b8162000643565b82525050565b60006200045e82620005c1565b6200046a8185620005ea565b93506200047c8185602086016200067a565b6200048781620006df565b840191505092915050565b60006020820190508181036000830152620004ae8184620003d6565b905092915050565b600060c0820190508181036000830152620004d2818962000451565b90508181036020830152620004e8818862000451565b90508181036040830152620004fe818762000451565b9050818103606083015262000514818662000451565b9050620005256080830185620003b4565b6200053460a0830184620003c5565b979650505050505050565b6000604051905081810181811067ffffffffffffffff82111715620005695762000568620006b0565b5b8060405250919050565b600067ffffffffffffffff821115620005915762000590620006b0565b5b601f19601f8301169050602081019050919050565b6000819050602082019050919050565b600081519050919050565b600081519050919050565b6000602082019050919050565b600082825260208201905092915050565b600082825260208201905092915050565b6000620006088262000623565b9050919050565b60006200061c8262000623565b9050919050565b600073ffffffffffffffffffffffffffffffffffffffff82169050919050565b6000620006508262000657565b9050919050565b6000620006648262000623565b9050919050565b82818337600083830152505050565b60005b838110156200069a5780820151818401526020810190506200067d565b83811115620006aa576000848401525b50505050565b7f4e487b7100000000000000000000000000000000000000000000000000000000600052604160045260246000fd5b6000601f19601f8301169050919050565b620006fb816200060f565b81146200070757600080fd5b5056fe60806040523480156200001157600080fd5b5060405162001c3838038062001c38833981810160405281019062000037919062000474565b620000576200004b6200011960201b60201c565b6200012160201b60201c565b85600290805190602001906200006f92919062000324565b5084600390805190602001906200008892919062000324565b508260059080519060200190620000a192919062000324565b508360049080519060200190620000ba92919062000324565b5081600660006101000a81548173ffffffffffffffffffffffffffffffffffffffff021916908373ffffffffffffffffffffffffffffffffffffffff1602179055506200010d81620001e560201b60201c565b5050505050506200081a565b600033905090565b60008060009054906101000a900473ffffffffffffffffffffffffffffffffffffffff169050816000806101000a81548173ffffffffffffffffffffffffffffffffffffffff021916908373ffffffffffffffffffffffffffffffffffffffff1602179055508173ffffffffffffffffffffffffffffffffffffffff168173ffffffffffffffffffffffffffffffffffffffff167f8be0079c531659141344cd1fd0a4f28419497f9722a3daafe3b4186f6b6457e060405160405180910390a35050565b620001f56200011960201b60201c565b73ffffffffffffffffffffffffffffffffffffffff166200021b620002fb60201b60201c565b73ffffffffffffffffffffffffffffffffffffffff161462000274576040517f08c379a00000000000000000000000000000000000000000000000000000000081526004016200026b906200063a565b60405180910390fd5b600073ffffffffffffffffffffffffffffffffffffffff168173ffffffffffffffffffffffffffffffffffffffff161415620002e7576040517f08c379a0000000000000000000000000000000000000000000000000000000008152600401620002de9062000618565b60405180910390fd5b620002f8816200012160201b60201c565b50565b60008060009054906101000a900473ffffffffffffffffffffffffffffffffffffffff16905090565b828054620003329062000752565b90600052602060002090601f016020900481019282620003565760008555620003a2565b82601f106200037157805160ff1916838001178555620003a2565b82800160010185558215620003a2579182015b82811115620003a157825182559160200191906001019062000384565b5b509050620003b19190620003b5565b5090565b5b80821115620003d0576000816000905550600101620003b6565b5090565b6000620003eb620003e58462000690565b6200065c565b9050828152602081018484840111156200040457600080fd5b620004118482856200071c565b509392505050565b6000815190506200042a81620007e6565b92915050565b600081519050620004418162000800565b92915050565b600082601f8301126200045957600080fd5b81516200046b848260208601620003d4565b91505092915050565b60008060008060008060c087890312156200048e57600080fd5b600087015167ffffffffffffffff811115620004a957600080fd5b620004b789828a0162000447565b965050602087015167ffffffffffffffff811115620004d557600080fd5b620004e389828a0162000447565b955050604087015167ffffffffffffffff8111156200050157600080fd5b6200050f89828a0162000447565b945050606087015167ffffffffffffffff8111156200052d57600080fd5b6200053b89828a0162000447565b93505060806200054e89828a0162000430565b92505060a06200056189828a0162000419565b9150509295509295509295565b60006200057d602683620006c3565b91507f4f776e61626c653a206e6577206f776e657220697320746865207a65726f206160008301527f64647265737300000000000000000000000000000000000000000000000000006020830152604082019050919050565b6000620005e5602083620006c3565b91507f4f776e61626c653a2063616c6c6572206973206e6f7420746865206f776e65726000830152602082019050919050565b6000602082019050818103600083015262000633816200056e565b9050919050565b600060208201905081810360008301526200065581620005d6565b9050919050565b6000604051905081810181811067ffffffffffffffff82111715620006865762000685620007b7565b5b8060405250919050565b600067ffffffffffffffff821115620006ae57620006ad620007b7565b5b601f19601f8301169050602081019050919050565b600082825260208201905092915050565b6000620006e182620006fc565b9050919050565b6000620006f582620006fc565b9050919050565b600073ffffffffffffffffffffffffffffffffffffffff82169050919050565b60005b838110156200073c5780820151818401526020810190506200071f565b838111156200074c576000848401525b50505050565b600060028204905060018216806200076b57607f821691505b6020821081141562000782576200078162000788565b5b50919050565b7f4e487b7100000000000000000000000000000000000000000000000000000000600052602260045260246000fd5b7f4e487b7100000000000000000000000000000000000000000000000000000000600052604160045260246000fd5b620007f181620006d4565b8114620007fd57600080fd5b50565b6200080b81620006e8565b81146200081757600080fd5b50565b61140e806200082a6000396000f3fe60806040526004361061010d5760003560e01c80637284e41611610095578063b90497e011610064578063b90497e014610344578063c47f00271461036f578063de2ed89314610398578063ed88c68e146103c3578063f2fde38b146103cd57610140565b80637284e4161461029a5780637a2a53b0146102c55780638da5cb5b146102f057806390c3f38f1461031b57610140565b80632abff1f2116100dc5780632abff1f2146101ed57806338af3eed146102165780633ccfd60b146102415780635600f04f14610258578063715018a61461028357610140565b806306fdde03146101455780631c31f710146101705780631f52259514610199578063252498a2146101c457610140565b36610140573460075461012091906111e9565b60078190555060086000815480929190610139906112f2565b9190505550005b600080fd5b34801561015157600080fd5b5061015a6103f6565b6040516101679190611150565b60405180910390f35b34801561017c57600080fd5b5061019760048036038101906101929190610fa0565b610484565b005b3480156101a557600080fd5b506101ae610544565b6040516101bb91906111b2565b60405180910390f35b3480156101d057600080fd5b506101eb60048036038101906101e69190610fc9565b61054a565b005b3480156101f957600080fd5b50610214600480360381019061020f9190610fc9565b6105dc565b005b34801561022257600080fd5b5061022b61066e565b6040516102389190611135565b60405180910390f35b34801561024d57600080fd5b50610256610694565b005b34801561026457600080fd5b5061026d6107b8565b60405161027a9190611150565b60405180910390f35b34801561028f57600080fd5b50610298610846565b005b3480156102a657600080fd5b506102af6108ce565b6040516102bc9190611150565b60405180910390f35b3480156102d157600080fd5b506102da61095c565b6040516102e791906111b2565b60405180910390f35b3480156102fc57600080fd5b506103056109a6565b604051610312919061111a565b60405180910390f35b34801561032757600080fd5b50610342600480360381019061033d9190610fc9565b6109cf565b005b34801561035057600080fd5b50610359610a61565b6040516103669190611150565b60405180910390f35b34801561037b57600080fd5b5061039660048036038101906103919190610fc9565b610aef565b005b3480156103a457600080fd5b506103ad610b81565b6040516103ba91906111b2565b60405180910390f35b6103cb610b87565b005b3480156103d957600080fd5b506103f460048036038101906103ef9190610f77565b610c9c565b005b60028054610403906112c0565b80601f016020809104026020016040519081016040528092919081815260200182805461042f906112c0565b801561047c5780601f106104515761010080835404028352916020019161047c565b820191906000526020600020905b81548152906001019060200180831161045f57829003601f168201915b505050505081565b61048c610d94565b73ffffffffffffffffffffffffffffffffffffffff166104aa6109a6565b73ffffffffffffffffffffffffffffffffffffffff1614610500576040517f08c379a00000000000000000000000000000000000000000000000000000000081526004016104f790611192565b60405180910390fd5b80600660006101000a81548173ffffffffffffffffffffffffffffffffffffffff021916908373ffffffffffffffffffffffffffffffffffffffff16021790555050565b60085481565b610552610d94565b73ffffffffffffffffffffffffffffffffffffffff166105706109a6565b73ffffffffffffffffffffffffffffffffffffffff16146105c6576040517f08c379a00000000000000000000000000000000000000000000000000000000081526004016105bd90611192565b60405180910390fd5b8181600591906105d7929190610e60565b505050565b6105e4610d94565b73ffffffffffffffffffffffffffffffffffffffff166106026109a6565b73ffffffffffffffffffffffffffffffffffffffff1614610658576040517f08c379a000000000000000000000000000000000000000000000000000000000815260040161064f90611192565b60405180910390fd5b818160049190610669929190610e60565b505050565b600660009054906101000a900473ffffffffffffffffffffffffffffffffffffffff1681565b61069c610d94565b73ffffffffffffffffffffffffffffffffffffffff166106ba6109a6565b73ffffffffffffffffffffffffffffffffffffffff1614610710576040517f08c379a000000000000000000000000000000000000000000000000000000000815260040161070790611192565b60405180910390fd5b6000479050600660009054906101000a900473ffffffffffffffffffffffffffffffffffffffff1673ffffffffffffffffffffffffffffffffffffffff166108fc829081150290604051600060405180830381858888f1935050505015801561077d573d6000803e3d6000fd5b507f5b6b431d4476a211bb7d41c20d1aab9ae2321deee0d20be3d9fc9b1093fa6e3d816040516107ad91906111b2565b60405180910390a150565b600580546107c5906112c0565b80601f01602080910402602001604051908101604052809291908181526020018280546107f1906112c0565b801561083e5780601f106108135761010080835404028352916020019161083e565b820191906000526020600020905b81548152906001019060200180831161082157829003601f168201915b505050505081565b61084e610d94565b73ffffffffffffffffffffffffffffffffffffffff1661086c6109a6565b73ffffffffffffffffffffffffffffffffffffffff16146108c2576040517f08c379a00000000000000000000000000000000000000000000000000000000081526004016108b990611192565b60405180910390fd5b6108cc6000610d9c565b565b600380546108db906112c0565b80601f0160208091040260200160405190810160405280929190818152602001828054610907906112c0565b80156109545780601f1061092957610100808354040283529160200191610954565b820191906000526020600020905b81548152906001019060200180831161093757829003601f168201915b505050505081565b6000600160003373ffffffffffffffffffffffffffffffffffffffff1673ffffffffffffffffffffffffffffffffffffffff16815260200190815260200160002080549050905090565b60008060009054906101000a900473ffffffffffffffffffffffffffffffffffffffff16905090565b6109d7610d94565b73ffffffffffffffffffffffffffffffffffffffff166109f56109a6565b73ffffffffffffffffffffffffffffffffffffffff1614610a4b576040517f08c379a0000000000000000000000000000000000000000000000000000000008152600401610a4290611192565b60405180910390fd5b818160039190610a5c929190610e60565b505050565b60048054610a6e906112c0565b80601f0160208091040260200160405190810160405280929190818152602001828054610a9a906112c0565b8015610ae75780601f10610abc57610100808354040283529160200191610ae7565b820191906000526020600020905b815481529060010190602001808311610aca57829003601f168201915b505050505081565b610af7610d94565b73ffffffffffffffffffffffffffffffffffffffff16610b156109a6565b73ffffffffffffffffffffffffffffffffffffffff1614610b6b576040517f08c379a0000000000000000000000000000000000000000000000000000000008152600401610b6290611192565b60405180910390fd5b818160029190610b7c929190610e60565b505050565b60075481565b60006040518060400160405280348152602001428152509050600160003373ffffffffffffffffffffffffffffffffffffffff1673ffffffffffffffffffffffffffffffffffffffff1681526020019081526020016000208190806001815401808255809150506001900390600052602060002090600202016000909190919091506000820151816000015560208201518160010155505034600754610c2d91906111e9565b60078190555060086000815480929190610c46906112f2565b91905055503373ffffffffffffffffffffffffffffffffffffffff167f264f630d9efa0d07053a31163641d9fcc0adafc9d9e76f1c37c2ce3a558d2c5234604051610c9191906111b2565b60405180910390a250565b610ca4610d94565b73ffffffffffffffffffffffffffffffffffffffff16610cc26109a6565b73ffffffffffffffffffffffffffffffffffffffff1614610d18576040517f08c379a0000000000000000000000000000000000000000000000000000000008152600401610d0f90611192565b60405180910390fd5b600073ffffffffffffffffffffffffffffffffffffffff168173ffffffffffffffffffffffffffffffffffffffff161415610d88576040517f08c379a0000000000000000000000000000000000000000000000000000000008152600401610d7f90611172565b60405180910390fd5b610d9181610d9c565b50565b600033905090565b60008060009054906101000a900473ffffffffffffffffffffffffffffffffffffffff169050816000806101000a81548173ffffffffffffffffffffffffffffffffffffffff021916908373ffffffffffffffffffffffffffffffffffffffff1602179055508173ffffffffffffffffffffffffffffffffffffffff168173ffffffffffffffffffffffffffffffffffffffff167f8be0079c531659141344cd1fd0a4f28419497f9722a3daafe3b4186f6b6457e060405160405180910390a35050565b828054610e6c906112c0565b90600052602060002090601f016020900481019282610e8e5760008555610ed5565b82601f10610ea757803560ff1916838001178555610ed5565b82800160010185558215610ed5579182015b82811115610ed4578235825591602001919060010190610eb9565b5b509050610ee29190610ee6565b5090565b5b80821115610eff576000816000905550600101610ee7565b5090565b600081359050610f12816113aa565b92915050565b600081359050610f27816113c1565b92915050565b60008083601f840112610f3f57600080fd5b8235905067ffffffffffffffff811115610f5857600080fd5b602083019150836001820283011115610f7057600080fd5b9250929050565b600060208284031215610f8957600080fd5b6000610f9784828501610f03565b91505092915050565b600060208284031215610fb257600080fd5b6000610fc084828501610f18565b91505092915050565b60008060208385031215610fdc57600080fd5b600083013567ffffffffffffffff811115610ff657600080fd5b61100285828601610f2d565b92509250509250929050565b61101781611251565b82525050565b6110268161123f565b82525050565b6000611037826111cd565b61104181856111d8565b935061105181856020860161128d565b61105a81611399565b840191505092915050565b60006110726026836111d8565b91507f4f776e61626c653a206e6577206f776e657220697320746865207a65726f206160008301527f64647265737300000000000000000000000000000000000000000000000000006020830152604082019050919050565b60006110d86020836111d8565b91507f4f776e61626c653a2063616c6c6572206973206e6f7420746865206f776e65726000830152602082019050919050565b61111481611283565b82525050565b600060208201905061112f600083018461101d565b92915050565b600060208201905061114a600083018461100e565b92915050565b6000602082019050818103600083015261116a818461102c565b905092915050565b6000602082019050818103600083015261118b81611065565b9050919050565b600060208201905081810360008301526111ab816110cb565b9050919050565b60006020820190506111c7600083018461110b565b92915050565b600081519050919050565b600082825260208201905092915050565b60006111f482611283565b91506111ff83611283565b9250827fffffffffffffffffffffffffffffffffffffffffffffffffffffffffffffffff038211156112345761123361133b565b5b828201905092915050565b600061124a82611263565b9050919050565b600061125c82611263565b9050919050565b600073ffffffffffffffffffffffffffffffffffffffff82169050919050565b6000819050919050565b60005b838110156112ab578082015181840152602081019050611290565b838111156112ba576000848401525b50505050565b600060028204905060018216806112d857607f821691505b602082108114156112ec576112eb61136a565b5b50919050565b60006112fd82611283565b91507fffffffffffffffffffffffffffffffffffffffffffffffffffffffffffffffff8214156113305761132f61133b565b5b600182019050919050565b7f4e487b7100000000000000000000000000000000000000000000000000000000600052601160045260246000fd5b7f4e487b7100000000000000000000000000000000000000000000000000000000600052602260045260246000fd5b6000601f19601f8301169050919050565b6113b38161123f565b81146113be57600080fd5b50565b6113ca81611251565b81146113d557600080fd5b5056fea264697066735822122089bcf410b9747a1cfa98f60cc479743aef63a97c147927d2f2acad50714ac4bb64736f6c63430008000033a2646970667358221220c0c2de99759acfb03147398ce9ee2549cd505c2fe48ba719c5563ad1a0269fd764736f6c63430008000033",
  "immutableReferences": {},
  "source": "// SPDX-License-Identifier: MIT\npragma solidity >=0.4.22 <0.9.0;\n\nimport './Fundraiser.sol';\n\ncontract FundraiserFactory {\n  Fundraiser[] private _fundraisers;\n\n  event FundraiserCreated(Fundraiser indexed fundraiser, address indexed owner);\n\n  function createFundraiser(\n    string memory name,\n    string memory description,\n    string memory imageURL,\n    string memory url,\n    address payable beneficiary\n  ) \n  public\n  {\n    Fundraiser fundraiser = new Fundraiser(name,description,imageURL,url,beneficiary,msg.sender);\n    _fundraisers.push(fundraiser);\n    emit FundraiserCreated(fundraiser, msg.sender);\n  }\n\n  function fundraisers() \n  public \n  view \n  returns(Fundraiser[] memory array_fundraisers)\n  {\n    return _fundraisers;\n  }\n}\n",
  "sourcePath": "D:/00-Mundo Digital/codigo/Learning/Blockchain/fundraiser/contracts/FundraiserFactory.sol",
  "compiler": {
    "name": "solc",
    "version": "0.8.0+commit.c7dfd78e.Emscripten.clang"
  },
  "schemaVersion": "3.4.1",
  "updatedAt": "2021-08-31T19:15:49.923Z",
  "networkType": "ethereum",
  "devdoc": {
    "kind": "dev",
    "methods": {},
    "version": 1
  },
  "userdoc": {
    "kind": "user",
    "methods": {},
    "version": 1
  }
}